H20110721030227MAPSOEB20110721030227.TXT                                                                                                                             
SRSUP905OEB77701BENJAMIN MOORE & CO.          Y2019010120191231958385UNK00600401026017100116101M50061201501019999999998N9900000099999BENJAMIN MOORE & CO           1C
SRSUP905OEB77701BENJAMIN MOORE & CO.          Y2019010120191231958385UNK00600401026017100116101 50061201501019999999998N9900000099999BENJAMIN MOORE & CO           1C
SRSUP905OEB77703BENJAMIN MOORE & CO.          Y2019010120191231958385UNK00600401026017100116101M50061201501019999999998N9900000099999BENJAMIN MOORE & CO           1C
SRSUP905OEB77703BENJAMIN MOORE & CO.          Y2019010120191231958385UNK00600401026017100116101 50061201501019999999998N9900000099999BENJAMIN MOORE & CO           1C
SRSUP905OEB77704BENJAMIN MOORE & CO.          Y2019010120191231958385UNK00600401026017100116101M50061201501019999999998N9900000099999BENJAMIN MOORE & CO           1C
SRSUP905OEB77704BENJAMIN MOORE & CO.          Y2019010120191231958385UNK00600401026017100116101 50061201501019999999998N9900000099999BENJAMIN MOORE & CO           1C
T201107210302270000000006MAPSOEB20110721030227.TXT                                                                                                                   
